{
  "contractName": "MarketStore",
  "abi": [
    {
      "anonymous": false,
      "inputs": [
        {
          "indexed": false,
          "internalType": "string",
          "name": "userId",
          "type": "string"
        },
        {
          "indexed": false,
          "internalType": "uint256",
          "name": "balance",
          "type": "uint256"
        }
      ],
      "name": "PointsAdded",
      "type": "event"
    },
    {
      "anonymous": false,
      "inputs": [
        {
          "indexed": false,
          "internalType": "string",
          "name": "userId",
          "type": "string"
        },
        {
          "indexed": false,
          "internalType": "uint256",
          "name": "balance",
          "type": "uint256"
        }
      ],
      "name": "PointsRemoved",
      "type": "event"
    },
    {
      "anonymous": false,
      "inputs": [
        {
          "indexed": false,
          "internalType": "string",
          "name": "productId",
          "type": "string"
        },
        {
          "indexed": false,
          "internalType": "uint256",
          "name": "quantity",
          "type": "uint256"
        },
        {
          "indexed": false,
          "internalType": "uint256",
          "name": "totalPrice",
          "type": "uint256"
        },
        {
          "indexed": false,
          "internalType": "uint256",
          "name": "timestamp",
          "type": "uint256"
        },
        {
          "indexed": false,
          "internalType": "string",
          "name": "size",
          "type": "string"
        },
        {
          "indexed": false,
          "internalType": "string",
          "name": "manufacturingMaterial",
          "type": "string"
        },
        {
          "indexed": false,
          "internalType": "string",
          "name": "state",
          "type": "string"
        },
        {
          "indexed": false,
          "internalType": "string",
          "name": "sellerId",
          "type": "string"
        },
        {
          "indexed": false,
          "internalType": "string",
          "name": "buyerId",
          "type": "string"
        },
        {
          "indexed": false,
          "internalType": "uint256",
          "name": "blockNumber",
          "type": "uint256"
        },
        {
          "indexed": false,
          "internalType": "bytes32",
          "name": "blockHash",
          "type": "bytes32"
        }
      ],
      "name": "ProductSold",
      "type": "event"
    },
    {
      "inputs": [
        {
          "internalType": "string",
          "name": "",
          "type": "string"
        }
      ],
      "name": "loyaltyPoints",
      "outputs": [
        {
          "internalType": "uint256",
          "name": "",
          "type": "uint256"
        }
      ],
      "stateMutability": "view",
      "type": "function",
      "constant": true
    },
    {
      "inputs": [
        {
          "internalType": "string",
          "name": "",
          "type": "string"
        },
        {
          "internalType": "uint256",
          "name": "",
          "type": "uint256"
        }
      ],
      "name": "pointsTransactions",
      "outputs": [
        {
          "internalType": "uint256",
          "name": "amount",
          "type": "uint256"
        },
        {
          "internalType": "uint256",
          "name": "timestamp",
          "type": "uint256"
        },
        {
          "internalType": "bool",
          "name": "isAddition",
          "type": "bool"
        }
      ],
      "stateMutability": "view",
      "type": "function",
      "constant": true
    },
    {
      "inputs": [
        {
          "internalType": "string",
          "name": "",
          "type": "string"
        },
        {
          "internalType": "string",
          "name": "",
          "type": "string"
        },
        {
          "internalType": "uint256",
          "name": "",
          "type": "uint256"
        }
      ],
      "name": "userProductHistory",
      "outputs": [
        {
          "internalType": "string",
          "name": "productId",
          "type": "string"
        },
        {
          "internalType": "uint256",
          "name": "quantity",
          "type": "uint256"
        },
        {
          "internalType": "string",
          "name": "orderId",
          "type": "string"
        },
        {
          "internalType": "uint256",
          "name": "price",
          "type": "uint256"
        },
        {
          "internalType": "uint256",
          "name": "timestamp",
          "type": "uint256"
        },
        {
          "internalType": "string",
          "name": "size",
          "type": "string"
        },
        {
          "internalType": "string",
          "name": "manufacturingMaterial",
          "type": "string"
        },
        {
          "internalType": "string",
          "name": "state",
          "type": "string"
        },
        {
          "internalType": "string",
          "name": "sellerId",
          "type": "string"
        },
        {
          "internalType": "uint256",
          "name": "blockNumber",
          "type": "uint256"
        },
        {
          "internalType": "bytes32",
          "name": "blockHash",
          "type": "bytes32"
        }
      ],
      "stateMutability": "view",
      "type": "function",
      "constant": true
    },
    {
      "inputs": [
        {
          "internalType": "string",
          "name": "productId",
          "type": "string"
        },
        {
          "internalType": "uint256",
          "name": "quantity",
          "type": "uint256"
        },
        {
          "internalType": "string",
          "name": "orderId",
          "type": "string"
        },
        {
          "internalType": "uint256",
          "name": "price",
          "type": "uint256"
        },
        {
          "internalType": "string",
          "name": "size",
          "type": "string"
        },
        {
          "internalType": "string",
          "name": "manufacturingMaterial",
          "type": "string"
        },
        {
          "internalType": "bool",
          "name": "state",
          "type": "bool"
        },
        {
          "internalType": "string",
          "name": "sellerId",
          "type": "string"
        },
        {
          "internalType": "string",
          "name": "buyerId",
          "type": "string"
        }
      ],
      "name": "sellProduct",
      "outputs": [],
      "stateMutability": "nonpayable",
      "type": "function"
    },
    {
      "inputs": [
        {
          "internalType": "uint256",
          "name": "amount",
          "type": "uint256"
        },
        {
          "internalType": "string",
          "name": "userId",
          "type": "string"
        }
      ],
      "name": "addLoyaltyPoints",
      "outputs": [],
      "stateMutability": "nonpayable",
      "type": "function"
    },
    {
      "inputs": [
        {
          "internalType": "uint256",
          "name": "amount",
          "type": "uint256"
        },
        {
          "internalType": "string",
          "name": "userId",
          "type": "string"
        }
      ],
      "name": "removeLoyaltyPoints",
      "outputs": [],
      "stateMutability": "nonpayable",
      "type": "function"
    },
    {
      "inputs": [
        {
          "internalType": "string",
          "name": "userId",
          "type": "string"
        }
      ],
      "name": "getLoyaltyPoints",
      "outputs": [
        {
          "internalType": "uint256",
          "name": "",
          "type": "uint256"
        }
      ],
      "stateMutability": "view",
      "type": "function",
      "constant": true
    },
    {
      "inputs": [
        {
          "internalType": "string",
          "name": "userId",
          "type": "string"
        }
      ],
      "name": "getPointsTransactionHistory",
      "outputs": [
        {
          "components": [
            {
              "internalType": "uint256",
              "name": "amount",
              "type": "uint256"
            },
            {
              "internalType": "uint256",
              "name": "timestamp",
              "type": "uint256"
            },
            {
              "internalType": "bool",
              "name": "isAddition",
              "type": "bool"
            }
          ],
          "internalType": "struct MarketStore.PointsTransaction[]",
          "name": "",
          "type": "tuple[]"
        }
      ],
      "stateMutability": "view",
      "type": "function",
      "constant": true
    },
    {
      "inputs": [
        {
          "internalType": "string",
          "name": "userId",
          "type": "string"
        },
        {
          "internalType": "string",
          "name": "productId",
          "type": "string"
        }
      ],
      "name": "getProductHistory",
      "outputs": [
        {
          "components": [
            {
              "internalType": "string",
              "name": "productId",
              "type": "string"
            },
            {
              "internalType": "uint256",
              "name": "quantity",
              "type": "uint256"
            },
            {
              "internalType": "string",
              "name": "orderId",
              "type": "string"
            },
            {
              "internalType": "uint256",
              "name": "price",
              "type": "uint256"
            },
            {
              "internalType": "uint256",
              "name": "timestamp",
              "type": "uint256"
            },
            {
              "internalType": "string",
              "name": "size",
              "type": "string"
            },
            {
              "internalType": "string",
              "name": "manufacturingMaterial",
              "type": "string"
            },
            {
              "internalType": "string",
              "name": "state",
              "type": "string"
            },
            {
              "internalType": "string",
              "name": "sellerId",
              "type": "string"
            },
            {
              "internalType": "uint256",
              "name": "blockNumber",
              "type": "uint256"
            },
            {
              "internalType": "bytes32",
              "name": "blockHash",
              "type": "bytes32"
            }
          ],
          "internalType": "struct MarketStore.Product[]",
          "name": "",
          "type": "tuple[]"
        }
      ],
      "stateMutability": "view",
      "type": "function",
      "constant": true
    }
  ],
  "bytecode": "0x608060405234801561001057600080fd5b50612368806100206000396000f3fe608060405234801561001057600080fd5b50600436106100935760003560e01c80638e224999116100665780638e22499914610130578063ae0ffce61461014c578063d9c3f6251461017e578063e0be7a7c146101b8578063eed3cbc5146101e857610093565b8063317fbe8f14610098578063394a7896146100c85780633d545dce146100f85780637c1a170314610114575b600080fd5b6100b260048036038101906100ad919061140b565b610218565b6040516100bf9190611708565b60405180910390f35b6100e260048036038101906100dd919061172a565b610808565b6040516100ef9190611782565b60405180910390f35b610112600480360381019061010d91906117c9565b61082f565b005b61012e600480360381019061012991906117c9565b6108e3565b005b61014a6004803603810190610145919061185d565b610997565b005b610166600480360381019061016191906119cf565b610c91565b60405161017593929190611a3a565b60405180910390f35b61019860048036038101906101939190611a71565b610cfb565b6040516101af9b9a99989796959493929190611b55565b60405180910390f35b6101d260048036038101906101cd919061172a565b6110db565b6040516101df9190611782565b60405180910390f35b61020260048036038101906101fd919061172a565b611109565b60405161020f9190611d2a565b60405180910390f35b6060600060028460405161022c9190611d88565b9081526020016040518091039020836040516102489190611d88565b908152602001604051809103902090506000818054905067ffffffffffffffff811115610278576102776112e0565b5b6040519080825280602002602001820160405280156102b157816020015b61029e611254565b8152602001906001900390816102965790505b50905060005b82805490508110156107fc576040518061016001604052808483815481106102e2576102e1611d9f565b5b90600052602060002090600b020160000180546102fe90611dfd565b80601f016020809104026020016040519081016040528092919081815260200182805461032a90611dfd565b80156103775780601f1061034c57610100808354040283529160200191610377565b820191906000526020600020905b81548152906001019060200180831161035a57829003601f168201915b5050505050815260200184838154811061039457610393611d9f565b5b90600052602060002090600b02016001015481526020018483815481106103be576103bd611d9f565b5b90600052602060002090600b020160020180546103da90611dfd565b80601f016020809104026020016040519081016040528092919081815260200182805461040690611dfd565b80156104535780601f1061042857610100808354040283529160200191610453565b820191906000526020600020905b81548152906001019060200180831161043657829003601f168201915b505050505081526020018483815481106104705761046f611d9f565b5b90600052602060002090600b020160030154815260200184838154811061049a57610499611d9f565b5b90600052602060002090600b02016004015481526020018483815481106104c4576104c3611d9f565b5b90600052602060002090600b020160050180546104e090611dfd565b80601f016020809104026020016040519081016040528092919081815260200182805461050c90611dfd565b80156105595780601f1061052e57610100808354040283529160200191610559565b820191906000526020600020905b81548152906001019060200180831161053c57829003601f168201915b5050505050815260200184838154811061057657610575611d9f565b5b90600052602060002090600b0201600601805461059290611dfd565b80601f01602080910402602001604051908101604052809291908181526020018280546105be90611dfd565b801561060b5780601f106105e05761010080835404028352916020019161060b565b820191906000526020600020905b8154815290600101906020018083116105ee57829003601f168201915b5050505050815260200184838154811061062857610627611d9f565b5b90600052602060002090600b0201600701805461064490611dfd565b80601f016020809104026020016040519081016040528092919081815260200182805461067090611dfd565b80156106bd5780601f10610692576101008083540402835291602001916106bd565b820191906000526020600020905b8154815290600101906020018083116106a057829003601f168201915b505050505081526020018483815481106106da576106d9611d9f565b5b90600052602060002090600b020160080180546106f690611dfd565b80601f016020809104026020016040519081016040528092919081815260200182805461072290611dfd565b801561076f5780601f106107445761010080835404028352916020019161076f565b820191906000526020600020905b81548152906001019060200180831161075257829003601f168201915b5050505050815260200184838154811061078c5761078b611d9f565b5b90600052602060002090600b02016009015481526020018483815481106107b6576107b5611d9f565b5b90600052602060002090600b0201600a01548152508282815181106107de576107dd611d9f565b5b602002602001018190525080806107f490611e5d565b9150506102b7565b50809250505092915050565b600080826040516108199190611d88565b9081526020016040518091039020549050919050565b60648261083c9190611ed4565b60008260405161084c9190611d88565b908152602001604051809103902060008282546108699190611f05565b925050819055507f7335d999e2f1230d9191b568d1c3d6b62637fb9b6505af16eb15ddcd3e952cc3816000836040516108a29190611d88565b9081526020016040518091039020546040516108bf929190611f39565b60405180910390a16108df816064846108d89190611ed4565b60016111b5565b5050565b6064826108f09190611ed4565b6000826040516109009190611d88565b9081526020016040518091039020600082825461091d9190611f69565b925050819055507f3f9f02deb082c02be3596857f85181b2cb3c09f0aa241b13e3e31da4cdbac007816000836040516109569190611d88565b908152602001604051809103902054604051610973929190611f39565b60405180910390a16109938160648461098c9190611ed4565b60006111b5565b5050565b6000429050600043905060008140905060006040518061016001604052808e81526020018d81526020018c81526020018b81526020018581526020018a815260200189815260200188610a1f576040518060400160405280600981526020017f43616e63656c6c65640000000000000000000000000000000000000000000000815250610a56565b6040518060400160405280600781526020017f52756e6e696e67000000000000000000000000000000000000000000000000008152505b81526020018781526020018481526020018381525090507fbaa966146180e9398b175b9b6d633421024158ac646aaea433fe3ffd772e23018d8d8c878d8d8d610ad4576040518060400160405280600981526020017f43616e63656c6c65640000000000000000000000000000000000000000000000815250610b0b565b6040518060400160405280600781526020017f52756e6e696e67000000000000000000000000000000000000000000000000008152505b8d8d8c8c604051610b269b9a99989796959493929190611f9d565b60405180910390a1600285604051610b3e9190611d88565b90815260200160405180910390208d604051610b5a9190611d88565b90815260200160405180910390208190806001815401808255809150506001900390600052602060002090600b02016000909190919091506000820151816000019081610ba7919061221e565b50602082015181600101556040820151816002019081610bc7919061221e565b50606082015181600301556080820151816004015560a0820151816005019081610bf1919061221e565b5060c0820151816006019081610c07919061221e565b5060e0820151816007019081610c1d919061221e565b50610100820151816008019081610c34919061221e565b50610120820151816009015561014082015181600a0155505086610c6c57610c678a8d610c6191906122f0565b866108e3565b610c82565b610c818a8d610c7b91906122f0565b8661082f565b5b50505050505050505050505050565b6001828051602081018201805184825260208301602085012081835280955050505050508181548110610cc357600080fd5b9060005260206000209060030201600091509150508060000154908060010154908060020160009054906101000a900460ff16905083565b600283805160208101820180518482526020830160208501208183528095505050505050828051602081018201805184825260208301602085012081835280955050505050508181548110610d4f57600080fd5b90600052602060002090600b02016000925092505050806000018054610d7490611dfd565b80601f0160208091040260200160405190810160405280929190818152602001828054610da090611dfd565b8015610ded5780601f10610dc257610100808354040283529160200191610ded565b820191906000526020600020905b815481529060010190602001808311610dd057829003601f168201915b505050505090806001015490806002018054610e0890611dfd565b80601f0160208091040260200160405190810160405280929190818152602001828054610e3490611dfd565b8015610e815780601f10610e5657610100808354040283529160200191610e81565b820191906000526020600020905b815481529060010190602001808311610e6457829003601f168201915b505050505090806003015490806004015490806005018054610ea290611dfd565b80601f0160208091040260200160405190810160405280929190818152602001828054610ece90611dfd565b8015610f1b5780601f10610ef057610100808354040283529160200191610f1b565b820191906000526020600020905b815481529060010190602001808311610efe57829003601f168201915b505050505090806006018054610f3090611dfd565b80601f0160208091040260200160405190810160405280929190818152602001828054610f5c90611dfd565b8015610fa95780601f10610f7e57610100808354040283529160200191610fa9565b820191906000526020600020905b815481529060010190602001808311610f8c57829003601f168201915b505050505090806007018054610fbe90611dfd565b80601f0160208091040260200160405190810160405280929190818152602001828054610fea90611dfd565b80156110375780601f1061100c57610100808354040283529160200191611037565b820191906000526020600020905b81548152906001019060200180831161101a57829003601f168201915b50505050509080600801805461104c90611dfd565b80601f016020809104026020016040519081016040528092919081815260200182805461107890611dfd565b80156110c55780601f1061109a576101008083540402835291602001916110c5565b820191906000526020600020905b8154815290600101906020018083116110a857829003601f168201915b50505050509080600901549080600a015490508b565b6000818051602081018201805184825260208301602085012081835280955050505050506000915090505481565b606060018260405161111b9190611d88565b9081526020016040518091039020805480602002602001604051908101604052809291908181526020016000905b828210156111aa578382906000526020600020906003020160405180606001604052908160008201548152602001600182015481526020016002820160009054906101000a900460ff16151515158152505081526020019060010190611149565b505050509050919050565b6001836040516111c59190611d88565b908152602001604051809103902060405180606001604052808481526020014281526020018315158152509080600181540180825580915050600190039060005260206000209060030201600090919091909150600082015181600001556020820151816001015560408201518160020160006101000a81548160ff0219169083151502179055505050505050565b60405180610160016040528060608152602001600081526020016060815260200160008152602001600081526020016060815260200160608152602001606081526020016060815260200160008152602001600080191681525090565b6000604051905090565b600080fd5b600080fd5b600080fd5b600080fd5b6000601f19601f8301169050919050565b7f4e487b7100000000000000000000000000000000000000000000000000000000600052604160045260246000fd5b611318826112cf565b810181811067ffffffffffffffff82111715611337576113366112e0565b5b80604052505050565b600061134a6112b1565b9050611356828261130f565b919050565b600067ffffffffffffffff821115611376576113756112e0565b5b61137f826112cf565b9050602081019050919050565b82818337600083830152505050565b60006113ae6113a98461135b565b611340565b9050828152602081018484840111156113ca576113c96112ca565b5b6113d584828561138c565b509392505050565b600082601f8301126113f2576113f16112c5565b5b813561140284826020860161139b565b91505092915050565b60008060408385031215611422576114216112bb565b5b600083013567ffffffffffffffff8111156114405761143f6112c0565b5b61144c858286016113dd565b925050602083013567ffffffffffffffff81111561146d5761146c6112c0565b5b611479858286016113dd565b9150509250929050565b600081519050919050565b600082825260208201905092915050565b6000819050602082019050919050565b600081519050919050565b600082825260208201905092915050565b60005b838110156114e95780820151818401526020810190506114ce565b60008484015250505050565b6000611500826114af565b61150a81856114ba565b935061151a8185602086016114cb565b611523816112cf565b840191505092915050565b6000819050919050565b6115418161152e565b82525050565b6000819050919050565b61155a81611547565b82525050565b600061016083016000830151848203600086015261157e82826114f5565b91505060208301516115936020860182611538565b50604083015184820360408601526115ab82826114f5565b91505060608301516115c06060860182611538565b5060808301516115d36080860182611538565b5060a083015184820360a08601526115eb82826114f5565b91505060c083015184820360c086015261160582826114f5565b91505060e083015184820360e086015261161f82826114f5565b91505061010083015184820361010086015261163b82826114f5565b915050610120830151611652610120860182611538565b50610140830151611667610140860182611551565b508091505092915050565b600061167e8383611560565b905092915050565b6000602082019050919050565b600061169e82611483565b6116a8818561148e565b9350836020820285016116ba8561149f565b8060005b858110156116f657848403895281516116d78582611672565b94506116e283611686565b925060208a019950506001810190506116be565b50829750879550505050505092915050565b600060208201905081810360008301526117228184611693565b905092915050565b6000602082840312156117405761173f6112bb565b5b600082013567ffffffffffffffff81111561175e5761175d6112c0565b5b61176a848285016113dd565b91505092915050565b61177c8161152e565b82525050565b60006020820190506117976000830184611773565b92915050565b6117a68161152e565b81146117b157600080fd5b50565b6000813590506117c38161179d565b92915050565b600080604083850312156117e0576117df6112bb565b5b60006117ee858286016117b4565b925050602083013567ffffffffffffffff81111561180f5761180e6112c0565b5b61181b858286016113dd565b9150509250929050565b60008115159050919050565b61183a81611825565b811461184557600080fd5b50565b60008135905061185781611831565b92915050565b60008060008060008060008060006101208a8c0312156118805761187f6112bb565b5b60008a013567ffffffffffffffff81111561189e5761189d6112c0565b5b6118aa8c828d016113dd565b99505060206118bb8c828d016117b4565b98505060408a013567ffffffffffffffff8111156118dc576118db6112c0565b5b6118e88c828d016113dd565b97505060606118f98c828d016117b4565b96505060808a013567ffffffffffffffff81111561191a576119196112c0565b5b6119268c828d016113dd565b95505060a08a013567ffffffffffffffff811115611947576119466112c0565b5b6119538c828d016113dd565b94505060c06119648c828d01611848565b93505060e08a013567ffffffffffffffff811115611985576119846112c0565b5b6119918c828d016113dd565b9250506101008a013567ffffffffffffffff8111156119b3576119b26112c0565b5b6119bf8c828d016113dd565b9150509295985092959850929598565b600080604083850312156119e6576119e56112bb565b5b600083013567ffffffffffffffff811115611a0457611a036112c0565b5b611a10858286016113dd565b9250506020611a21858286016117b4565b9150509250929050565b611a3481611825565b82525050565b6000606082019050611a4f6000830186611773565b611a5c6020830185611773565b611a696040830184611a2b565b949350505050565b600080600060608486031215611a8a57611a896112bb565b5b600084013567ffffffffffffffff811115611aa857611aa76112c0565b5b611ab4868287016113dd565b935050602084013567ffffffffffffffff811115611ad557611ad46112c0565b5b611ae1868287016113dd565b9250506040611af2868287016117b4565b9150509250925092565b600082825260208201905092915050565b6000611b18826114af565b611b228185611afc565b9350611b328185602086016114cb565b611b3b816112cf565b840191505092915050565b611b4f81611547565b82525050565b6000610160820190508181036000830152611b70818e611b0d565b9050611b7f602083018d611773565b8181036040830152611b91818c611b0d565b9050611ba0606083018b611773565b611bad608083018a611773565b81810360a0830152611bbf8189611b0d565b905081810360c0830152611bd38188611b0d565b905081810360e0830152611be78187611b0d565b9050818103610100830152611bfc8186611b0d565b9050611c0c610120830185611773565b611c1a610140830184611b46565b9c9b505050505050505050505050565b600081519050919050565b600082825260208201905092915050565b6000819050602082019050919050565b611c5f81611825565b82525050565b606082016000820151611c7b6000850182611538565b506020820151611c8e6020850182611538565b506040820151611ca16040850182611c56565b50505050565b6000611cb38383611c65565b60608301905092915050565b6000602082019050919050565b6000611cd782611c2a565b611ce18185611c35565b9350611cec83611c46565b8060005b83811015611d1d578151611d048882611ca7565b9750611d0f83611cbf565b925050600181019050611cf0565b5085935050505092915050565b60006020820190508181036000830152611d448184611ccc565b905092915050565b600081905092915050565b6000611d62826114af565b611d6c8185611d4c565b9350611d7c8185602086016114cb565b80840191505092915050565b6000611d948284611d57565b915081905092915050565b7f4e487b7100000000000000000000000000000000000000000000000000000000600052603260045260246000fd5b7f4e487b7100000000000000000000000000000000000000000000000000000000600052602260045260246000fd5b60006002820490506001821680611e1557607f821691505b602082108103611e2857611e27611dce565b5b50919050565b7f4e487b7100000000000000000000000000000000000000000000000000000000600052601160045260246000fd5b6000611e688261152e565b91507fffffffffffffffffffffffffffffffffffffffffffffffffffffffffffffffff8203611e9a57611e99611e2e565b5b600182019050919050565b7f4e487b7100000000000000000000000000000000000000000000000000000000600052601260045260246000fd5b6000611edf8261152e565b9150611eea8361152e565b925082611efa57611ef9611ea5565b5b828204905092915050565b6000611f108261152e565b9150611f1b8361152e565b9250828201905080821115611f3357611f32611e2e565b5b92915050565b60006040820190508181036000830152611f538185611b0d565b9050611f626020830184611773565b9392505050565b6000611f748261152e565b9150611f7f8361152e565b9250828203905081811115611f9757611f96611e2e565b5b92915050565b6000610160820190508181036000830152611fb8818e611b0d565b9050611fc7602083018d611773565b611fd4604083018c611773565b611fe1606083018b611773565b8181036080830152611ff3818a611b0d565b905081810360a08301526120078189611b0d565b905081810360c083015261201b8188611b0d565b905081810360e083015261202f8187611b0d565b90508181036101008301526120448186611b0d565b9050612054610120830185611773565b612062610140830184611b46565b9c9b505050505050505050505050565b60008190508160005260206000209050919050565b60006020601f8301049050919050565b600082821b905092915050565b6000600883026120d47fffffffffffffffffffffffffffffffffffffffffffffffffffffffffffffffff82612097565b6120de8683612097565b95508019841693508086168417925050509392505050565b6000819050919050565b600061211b6121166121118461152e565b6120f6565b61152e565b9050919050565b6000819050919050565b61213583612100565b61214961214182612122565b8484546120a4565b825550505050565b600090565b61215e612151565b61216981848461212c565b505050565b5b8181101561218d57612182600082612156565b60018101905061216f565b5050565b601f8211156121d2576121a381612072565b6121ac84612087565b810160208510156121bb578190505b6121cf6121c785612087565b83018261216e565b50505b505050565b600082821c905092915050565b60006121f5600019846008026121d7565b1980831691505092915050565b600061220e83836121e4565b9150826002028217905092915050565b612227826114af565b67ffffffffffffffff8111156122405761223f6112e0565b5b61224a8254611dfd565b612255828285612191565b600060209050601f8311600181146122885760008415612276578287015190505b6122808582612202565b8655506122e8565b601f19841661229686612072565b60005b828110156122be57848901518255600182019150602085019450602081019050612299565b868310156122db57848901516122d7601f8916826121e4565b8355505b6001600288020188555050505b505050505050565b60006122fb8261152e565b91506123068361152e565b92508282026123148161152e565b9150828204841483151761232b5761232a611e2e565b5b509291505056fea26469706673582212201f7ba8827df49b04f816e44fb4cdb5c719d09ee7f895ea811bac54d9d523cefd64736f6c63430008130033",
  "immutableReferences": {},
  "source": "// SPDX-License-Identifier: MIT\npragma solidity >=0.4.22 <0.9.0;\n\ncontract MarketStore {\n  struct Product {\n        string productId;\n        uint quantity;\n        string orderId;\n        uint256 price;\n        uint256 timestamp;\n        string size;\n        string manufacturingMaterial;\n        string state;\n        string sellerId;\n        uint256 blockNumber; // Added field to store the block number\n        bytes32 blockHash; // Added field to store the block hash\n    }\n    \n    struct PointsTransaction {\n        uint256 amount;\n        uint256 timestamp;\n        bool isAddition;\n    }\n\n    mapping(string => uint256) public loyaltyPoints;\n    mapping(string => PointsTransaction[]) public pointsTransactions;\n    mapping(string => mapping(string => Product[])) public userProductHistory;\n\n    event ProductSold(\n        string productId,\n        uint256 quantity,\n        uint256 totalPrice,\n        uint256 timestamp,\n        string size,\n        string manufacturingMaterial,\n        string state,\n        string sellerId,\n        string buyerId,\n        uint256 blockNumber, // Added field in the event\n        bytes32 blockHash // Added field in the event\n    );\n    event PointsAdded(string userId, uint balance);\n    event PointsRemoved(string userId, uint balance);\n\n  function sellProduct(\n        string memory productId,\n        uint256 quantity,\n        string memory orderId,\n        uint256 price,\n        string memory size,\n        string memory manufacturingMaterial,\n        bool state,\n        string memory sellerId,\n        string memory buyerId\n    ) public {\n        uint256 timestamp = block.timestamp;\n        uint256 currentBlockNumber = block.number;\n        bytes32 currentBlockHash = blockhash(currentBlockNumber);\n\n        // Create a new product entry\n        Product memory newProduct = Product(productId, quantity,orderId, price, timestamp, size, manufacturingMaterial, (state)?\"Running\":\"Cancelled\", sellerId, currentBlockNumber, currentBlockHash);\n        \n\n       \n        emit ProductSold(\n            productId,\n            quantity,\n            price,\n            timestamp,\n            size,\n            manufacturingMaterial,\n            (state)?\"Running\":\"Cancelled\",\n            sellerId,\n            buyerId,\n            currentBlockNumber,\n            currentBlockHash\n        );\n\n        // Add the product to the user's product history\n        userProductHistory[buyerId][productId].push(newProduct);\n\n        (state) ? addLoyaltyPoints(quantity * price, buyerId) : removeLoyaltyPoints(quantity * price, buyerId);\n    }\n\n\n  // Function to add loyalty points to a user\nfunction addLoyaltyPoints(uint256 amount, string memory userId) public {\n    loyaltyPoints[userId] += amount/100;\n    emit PointsAdded(userId, loyaltyPoints[userId]);\n    \n    // Add loyalty points transaction to history\n    addPointsTransaction(userId, amount/100, true);\n}\n\n// Function to remove loyalty points from a user\nfunction removeLoyaltyPoints(uint256 amount, string memory userId) public {\n    \n    loyaltyPoints[userId] -= amount/100;\n    emit PointsRemoved(userId, loyaltyPoints[userId]);\n    \n    // Add loyalty points transaction to history\n    addPointsTransaction(userId, amount/100, false);\n}\n\n\n\n// Function to get the loyalty points balance of a user\nfunction getLoyaltyPoints(string memory userId) public view returns (uint256) {\n    return loyaltyPoints[userId];\n}\n\n// Function to add a loyalty points transaction to the history\nfunction addPointsTransaction(string memory userId, uint256 amount, bool isAddition) internal {\n    pointsTransactions[userId].push(PointsTransaction(amount, block.timestamp, isAddition));\n}\n\n// Function to retrieve the loyalty points transaction history of a user\nfunction getPointsTransactionHistory(string memory userId) public view returns (PointsTransaction[] memory) {\n    return pointsTransactions[userId];\n}\n\n// Function to get the product history of a user\nfunction getProductHistory(string memory userId, string memory productId) public view returns (Product[] memory) {\n    Product[] storage productHistory = userProductHistory[userId][productId];\n    Product[] memory extractedProductHistory = new Product[](productHistory.length);\n\n    for (uint256 i = 0; i < productHistory.length; i++) {\n        extractedProductHistory[i] = Product(\n            productHistory[i].productId,\n            productHistory[i].quantity,\n            productHistory[i].orderId,\n            productHistory[i].price,\n            productHistory[i].timestamp,\n            productHistory[i].size,\n            productHistory[i].manufacturingMaterial,\n            productHistory[i].state,\n            productHistory[i].sellerId,\n            productHistory[i].blockNumber,\n            productHistory[i].blockHash\n        );\n    }\n\n    return extractedProductHistory;\n}\n\n\n}\n",
  "sourcePath": "A:\\Final-project\\MarketStoreContract\\contracts\\MarketStore.sol",
  "compiler": {
    "name": "solc",
    "version": "0.8.19+commit.7dd6d404.Emscripten.clang"
  },
  "schemaVersion": "3.4.13",
  "updatedAt": "2023-06-15T19:12:20.713Z",
  "networkType": "ethereum",
  "devdoc": {
    "kind": "dev",
    "methods": {},
    "version": 1
  },
  "userdoc": {
    "kind": "user",
    "methods": {},
    "version": 1
  }
}